:100000000C9462000C94D3010C9400020C948A00AE
:100010000C948A000C948A000C948A000C942D068F
:100020000C948A000C948A000C948A000C948A0028
:100030000C948A000C948A000C948A000C948A0018
:100040000C944B020C948A000C9417030C948A00B5
:100050000C948A000C948A000C948A000C948A00F8
:100060000C948A000C948A000000000024002700F1
:100070002A0000000000250028002B0000000000DE
:1000800023002600290004040404040404040202DA
:100090000202020203030303030301020408102007
:1000A0004080010204081020010204081020000012
:1000B0000007000201000003040600000000000029
:1000C0000000A80411241FBECFEFD8E0DEBFCDBFD3
:1000D00011E0A0E0B1E0E8E1FEE002C005900D9281
:1000E000A833B107D9F711E0A8E3B1E001C01D9230
:1000F000A03FB107E1F710E0C4ECD0E004C02297C4
:10010000FE010E940607C23CD107C9F70E94E20423
:100110000C940A070C9400001D9A8091380190916C
:1001200039018095909590933901809338018091A1
:100130003C0190913D018095909590933D01809375
:100140003C010895109244011092430180913A01BC
:1001500090913B018095909590933B0180933A015B
:100160000895EF92FF920F931F9380913E0190911B
:100170003F01019690933F0180933E0164E670E059
:1001800080E090E00E94930206ED11E0C80160E07B
:1001900071E00E94220660913E0170913F01C8010A
:1001A0004AE050E00E94F8058CE1E82E81E0F82E4C
:1001B000C801B7010E942005609140017091410182
:1001C000C8014AE050E00E94F805C801B7010E944A
:1001D000200560913A0170913B01C8014AE050E06E
:1001E0000E94F805C801B7010E94200560913C01FA
:1001F00070913D01C8014AE050E00E94F805C80135
:10020000B7010E9420056091380170913901C80141
:100210004AE050E00E94F805C8010E940B061F91B9
:100220000F91FF90EF90089521C062E370E080E0AD
:1002300090E00E94930286ED91E00E946104809319
:100240004201833749F486ED91E06FE171E00E944D
:1002500022060E948C000AC0823741F486ED91E0AC
:1002600066E271E00E9422060E94B10086ED91E0F4
:100270000E944D048823C9F6089580E00E942D0253
:1002800090934101809340010E94140180913C01B0
:1002900090913D01892B21F5209140013091410140
:1002A00082E02835380734F4809138019091390183
:1002B000892B71F4295532409CF020913A013091FC
:1002C0003B0180913801909139012817390741F09D
:1002D0008FEF9FEF90933D0180933C010E948C0033
:1002E00064EF71E080E090E00E949302809143010E
:1002F00090914401019690934401809343010B97A0
:100300001CF085B1807285B908950F931F9306ED97
:1003100011E0C80140E855E260E070E00E9454033B
:10032000C8010E9489048DE061E00E94F70282E02A
:1003300060E00E94F70283E060E00E94F70280E044
:100340006CE870E043E050E00E94B00181E062EAB6
:1003500070E043E050E00E94B0011F910F910895BA
:10036000823000F5E82FF0E0EE0FFF1FEB5BFE4F51
:1003700071836083882319F08130A1F408C08091D3
:1003800069008C7F842B80936900E89A089580919E
:100390006900440F551F440F551F837F842B8093A2
:1003A0006900E99A08951F920F920FB60F921124D7
:1003B0002F933F934F935F936F937F938F939F936D
:1003C000AF93BF93EF93FF938091450190914601C6
:1003D000892B29F0E0914501F09146010995FF91A3
:1003E000EF91BF91AF919F918F917F916F915F91AD
:1003F0004F913F912F910F900FBE0F901F90189526
:100400001F920F920FB60F9211242F933F934F9389
:100410005F936F937F938F939F93AF93BF93EF936C
:10042000FF938091470190914801892B29F0E09139
:100430004701F09148010995FF91EF91BF91AF916C
:100440009F918F917F916F915F914F913F912F91EC
:100450000F900FBE0F901F901895877090912D01EF
:100460009295990F990F907C982B90937C00809196
:100470007A00806480937A0080917A0086FDFCCFB8
:100480002091780040917900942F80E030E0282B73
:10049000392BC90108951F920F920FB60F921124A4
:1004A0002F933F938F939F93AF93BF9380914D0171
:1004B00090914E01A0914F01B091500130915101A6
:1004C0000196A11DB11D232F2D5F2D3720F02D5733
:1004D0000196A11DB11D2093510180934D01909370
:1004E0004E01A0934F01B09350018091490190912A
:1004F0004A01A0914B01B0914C010196A11DB11D83
:100500008093490190934A01A0934B01B0934C0111
:10051000BF91AF919F918F913F912F910F900FBEFF
:100520000F901F901895EF92FF920F931F937B01EE
:100530008C018FB7F89440914D0150914E0160911C
:100540004F01709150018FBF2FB7F89480914D01EA
:1005500090914E01A0914F01B09150012FBF841B8B
:10056000950BA60BB70BE816F9060A071B0760F7F1
:100570001F910F91FF90EF900895789484B5826059
:1005800084BD84B5816084BD85B5826085BD85B537
:10059000816085BDEEE6F0E0808181608083E1E8E6
:1005A000F0E0808182608083808181608083E0E8E8
:1005B000F0E0808181608083E1EBF0E08081846005
:1005C0008083E0EBF0E0808181608083EAE7F0E007
:1005D000808184608083808182608083808181606B
:1005E00080838081806880831092C1000895282FC5
:1005F00030E0C90186569F4FFC0194912A573F4F26
:10060000F9018491882391F0E82FF0E0EE0FFF1FAD
:10061000E859FF4FA591B491662329F48C919095E8
:1006200089238C9308958C91892B8C9308951F9224
:100630000F920FB60F9211242F933F934F935F9316
:100640006F937F938F939F93AF93BF93EF93FF939A
:100650004091C600E091D201F091D301CF01019603
:1006600060E870E00E94A0069C018091D401909106
:10067000D5012817390739F0EE5AFE4F40833093E1
:10068000D3012093D201FF91EF91BF91AF919F9140
:100690008F917F916F915F914F913F912F910F902B
:1006A0000FBE0F901F9018955F926F927F928F925E
:1006B0009F92AF92BF92CF92DF92EF92FF920F93F1
:1006C0001F93CF93DF93EC013A014B01413482E455
:1006D00058078FE0680780E078070CF07FC060E87B
:1006E00074E88EE190E0A40193010E94D5062150A8
:1006F000304040405040CA01B90122E030E040E0C3
:1007000050E00E94D50659016A01A6019501209585
:1007100030954095509594E0220F331F441F551F8C
:100720009A95D1F760E074E284EF90E00E94D506DC
:10073000CA01B9012FEF30E040E050E00E9481068D
:10074000A40193010E94D506C90181509F4F18163C
:1007500019061CF4522E5A9403C055245394521A6D
:1007600060E079E08DE390E0A40193010E94D5065A
:100770002150304040405040CA01B90122E030E0F1
:1007800040E050E00E94D506209530954095509568
:1007900083E0220F331F441F551F8A95D1F760E075
:1007A00074E284EF90E00E94D506CA01B9012FEFF0
:1007B00030E040E050E00E948106A40193010E94D5
:1007C000D506C90181509F4F181619061CF4822FB7
:1007D000815002C081E0821B851500F5E885F9850E
:1007E00081E090E00A8802C0880F991F0A94E2F71E
:1007F000808360E079E08DE390E0A40193010E94A2
:10080000D5062150304040405040CA01B90122E095
:1008100030E040E050E00E94D50604C0E885F9854C
:1008200010829501EC81FD813083EE81FF81208370
:10083000EA85FB85208141E050E0CA010E8402C0B8
:10084000880F991F0A94E2F7282B2083EA85FB85FD
:100850002081CA010F8402C0880F991F0A94E2F711
:10086000282B2083EA85FB858081088802C0440FFD
:10087000551F0A94E2F7842B8083DF91CF911F915B
:100880000F91FF90EF90DF90CF90BF90AF909F902F
:100890008F907F906F905F900895DC011296ED919C
:1008A000FC911397E058FF4F8191919180589F4F91
:1008B00020813181821B930B60E870E00E94A006CA
:1008C0000895CF93DF93DC011296ED91FC9113977D
:1008D000EF01CE57DF4F48815981E058FF4F8081AB
:1008E0009181E058F0408417950719F42FEF3FEFFE
:1008F0000CC0E40FF51F2081CA01019660E870E08A
:100900000E94A0069983888330E0C901DF91CF91CE
:100910000895DC011296ED91FC911397EE57FF4F6D
:1009200080819181929382930895FC01A085B18585
:1009300021898C9190E0022E02C0959587950A94AA
:10094000E2F780FFF6CF0484F585E02D60830895FB
:1009500082E391E09093D7018093D60182E591E004
:100960009093D9018093D80185EC90E09093DB01BE
:100970008093DA0184EC90E09093DD018093DC01B8
:1009800080EC90E09093DF018093DE0181EC90E0B9
:100990009093E1018093E00186EC90E09093E30175
:1009A0008093E20184E08093E40183E08093E50199
:1009B00087E08093E60185E08093E70181E0809302
:1009C000E80108950E94BD020E9485010E943D0138
:1009D000FDCF0F931F93CF93DF938C01EB0109C0E1
:1009E0002196D801ED91FC910190F081E02DC80194
:1009F000099568816623A1F7DF91CF911F910F912F
:100A00000895EF92FF920F931F93CF93DF938C0182
:100A10007B01EA010CC0D7016D917D01D801ED91F8
:100A2000FC910190F081E02DC80109952197209754
:100A300091F7DF91CF911F910F91FF90EF90089563
:100A4000DC01ED91FC910280F381E02D0995089580
:100A50002F923F924F925F926F927F928F929F92CE
:100A6000AF92BF92CF92DF92EF92FF920F931F93BC
:100A7000DF93CF93CDB7DEB7A0970FB6F894DEBF64
:100A80000FBECDBF1C016A017B01411551056105F7
:100A9000710549F440E350E060E070E020E030E0B0
:100AA0000E94C20556C0882499245401422E552420
:100AB0006624772401E010E00C0F1D1F080D191D9E
:100AC000C701B601A30192010E94B306F801608339
:100AD0000894811C911CA11CB11CC701B601A30183
:100AE00092010E94B306C901DA016C017D01C114B3
:100AF000D104E104F104F1F681E0E82EF12CEC0ED2
:100B0000FD1EE80CF91C3E010894611C711CD50106
:100B1000C4010197A109B1096C01C818D90816C010
:100B2000F601EE0DFF1D40814A3010F4405D01C01A
:100B3000495C552747FD5095652F752FC10120E071
:100B400030E00E94C2050894E108F1086E147F04A9
:100B500039F7A0960FB6F894DEBF0FBECDBFCF9188
:100B6000DF911F910F91FF90EF90DF90CF90BF909A
:100B7000AF909F908F907F906F905F904F903F903D
:100B80002F900895EF92FF920F931F93CF93DF93CF
:100B9000EC017A018B012115310541F4E881F981DD
:100BA0000190F081E02D642F09951BC02A3031059A
:100BB000B1F477FF10C04DE250E060E070E020E05B
:100BC00030E00E94C20510950095F094E094E11C7D
:100BD000F11C011D111DCE01B801A7012AE00E94E0
:100BE0002805DF91CF911F910F91FF90EF9008950D
:100BF000EF92FF920F931F937B019A010027F7FC5E
:100C00000095102FB801A7010E94C2051F910F91F6
:100C1000FF90EF9008950F931F938C014DE050E0EB
:100C200060E070E020E030E00E94C205C8014AE0C8
:100C300050E060E070E020E030E00E94C2051F91CB
:100C40000F9108950F931F938C010E942005C801F6
:100C50000E940B061F910F9108951F920F920FB6DD
:100C60000F9211248F939F93AF93BF93EF93FF93B2
:100C70008091E9019091EA01A091EB01B091EC0122
:100C8000E091ED01F091EE010097A105B10531F180
:100C900080819091EF01892780838091E901909173
:100CA000EA01A091EB01B091EC01181619061A06A1
:100CB0001B06E4F48091E9019091EA01A091EB0117
:100CC000B091EC010197A109B1098093E9019093DA
:100CD000EA01A093EB01B093EC0108C01092700000
:100CE00090818091EF01809589238083FF91EF911E
:100CF000BF91AF919F918F910F900FBE0F901F905A
:100D00001895629FD001739FF001829FE00DF11D45
:100D1000649FE00DF11D929FF00D839FF00D749F75
:100D2000F00D659FF00D9927729FB00DE11DF91F21
:100D3000639FB00DE11DF91FBD01CF01112408957E
:100D400097FB092E07260AD077FD04D049D006D09C
:100D500000201AF4709561957F4F0895F6F79095ED
:100D600081959F4F0895A1E21A2EAA1BBB1BFD017E
:100D70000DC0AA1FBB1FEE1FFF1FA217B307E4077A
:100D8000F50720F0A21BB30BE40BF50B661F771FD2
:100D9000881F991F1A9469F76095709580959095B2
:100DA0009B01AC01BD01CF01089597FB092E0526DB
:100DB0000ED057FD04D0D7DF0AD0001C38F4509570
:100DC0004095309521953F4F4F4F5F4F0895F6F76F
:100DD00090958095709561957F4F8F4F9F4F0895A7
:100DE000AA1BBB1B51E107C0AA1FBB1FA617B70751
:100DF00010F0A61BB70B881F991F5A95A9F780956D
:100E00009095BC01CD010895EE0FFF1F0590F49160
:080E1000E02D0994F894FFCFD6
:100E1800636F756E74206C69676874206D6F766592
:100E2800206D6F6465207374617465002020007301
:100E38007769746368007265706F727400010000EE
:080E480000009504E904010516
:00000001FF
