:100000000C94AC000C94D4000C94D4000C944302D7
:100010000C9467020C948B020C94D4000C94D400C2
:100020000C94D4000C94D4000C94D4000C94D40000
:100030000C94D4000C94D4000C94D4000C94D400F0
:100040000C947C040C94D4000C9483060C94BF068E
:100050000C94D4000C94D4000C94D4000C94D400D0
:100060000C94D4000C94D40000C2010001001100D3
:1000700011000C0000E100000A002500250021000D
:10008000009600001900390039003600127A00008D
:100090001F004600460044008070000022004D0012
:1000A0004D004A00004B00003600750075007200DC
:1000B000403800004A009C009C0099008025000008
:1000C0007200EC00EC00E900C0120000E900DA0167
:1000D000DA01D70160090000D701B603B603B30304
:1000E000B0040000B3036E076E076B072C0100001D
:1000F000DC0EC11DC11DBE1D000000070002010075
:1001000000030406000000000000000001020408D3
:100110001020408001020408102001020408102071
:10012000040404040404040402020202020203039D
:100130000303030300000000230026002900000041
:100140000000250028002B000000000024002700EC
:100150002A0071047A07780411241FBECFEFD8E07B
:10016000DEBFCDBF11E0A0E0B1E0E4E4F1E102C008
:1001700005900D92A03AB107D9F712E0A0EAB1E0DC
:1001800001C01D92A03BB107E1F711E0C6E5D1E047
:1001900004C02297FE010E949108C235D107C9F719
:1001A0000E94CA070C9442080C9400002091FE01A2
:1001B0003091FF0128173907B1F49091BC0180916B
:1001C000BD01981781F0E091BC01F0E0E254FE4FD0
:1001D00020818091BC0190E001968F7399278093D4
:1001E000BC0130E002C02FEF3FEFC901089520911C
:1001F000FE013091FF012817390781F49091BC016D
:100200008091BD01981751F0E091BC01F0E0E254FB
:10021000FE4F2081332727FD309502C02FEF3FEF9F
:10022000C90108952091FE013091FF012817390777
:1002300039F48FB7F8941092BD011092BC018FBFB2
:1002400008952091FE013091FF012817390779F4B4
:100250008091BD012091BC0190E0805C9F4F821B8A
:10026000910960E470E00E9459089C0102C020E0FE
:1002700030E0C9010895DC015196ED91FC9152974F
:10028000208150968C91809582238083089520E070
:1002900001972FEF8F3F9207D9F708952091FE0124
:1002A0003091FF012817390789F0FC01238D2E7F3B
:1002B000238F2FB7F8941092BD011092BC01909338
:1002C000FF018093FE012FBF81E0089580E0089533
:1002D000EF92FF920F931F93CF93DF93EC018B8DDF
:1002E000EE85FF859D8581FF04C08081892329F4E7
:1002F00045C08081892309F041C08B899C890E9477
:10030000470108E010E0EE24E394F12C8D899E89EA
:100310000E944701EE85FF8580819D85892311F02C
:10032000FE2803C08E2D8095F822EE0C0150110995
:1003300069F78F89988D0E9447018B8D81FDF0941C
:100340008091BD012091BC0190E001968F739927A7
:1003500030E08217930779F0E091BD01F0E0E254BC
:10036000FE4FF0828091BD0190E001968F73992736
:100370008093BD0103C08B8D81608B8FDF91CF9106
:100380001F910F91FF90EF900895611102C00C949E
:100390003B01DC015196ED91FC91529720815096E2
:1003A0008C91282B20830895DF92EF92FF920F9378
:1003B0001F93CF93DF93EC01E62E898D9A8D892BC5
:1003C00039F481E090E09B838A8320E030E049C0EB
:1003D000DFB6F8946B8D66956170CE010E94C50101
:1003E000898D9A8D05960E9447018B8D08E010E05B
:1003F000FF24F39481FF17C08F2D8E2121F0CE01B1
:100400000E943B0104C061E0CE010E94C501898DBC
:100410009A8D0E944701FF0C0150110969F7CE0126
:100420000E943B0117C08F2D8E2129F061E0CE0183
:100430000E94C50103C0CE010E943B01898D9A8DA7
:100440000E944701FF0C0150110969F761E0CE01DC
:100450000E94C501DFBE898D9A8D0E94470121E06F
:1004600030E0C901DF91CF911F910F91FF90EF9084
:10047000DF9008958091FE019091FF01009711F0A7
:100480000C94680108951F920F920FB60F921124D9
:100490002F933F934F935F936F937F938F939F938C
:1004A000AF93BF93EF93FF930E943A02FF91EF91B6
:1004B000BF91AF919F918F917F916F915F914F917C
:1004C0003F912F910F900FBE0F901F9018951F9284
:1004D0000F920FB60F9211242F933F934F935F9378
:1004E0006F937F938F939F93AF93BF93EF93FF93FC
:1004F0000E943A02FF91EF91BF91AF919F918F912E
:100500007F916F915F914F913F912F910F900FBE0F
:100510000F901F9018951F920F920FB60F921124F3
:100520002F933F934F935F936F937F938F939F93FB
:10053000AF93BF93EF93FF930E943A02FF91EF9125
:10054000BF91AF919F918F917F916F915F914F91EB
:100550003F912F910F900FBE0F901F9018951F93F2
:10056000CF93DF93EC01162F61E0812F0E947B0572
:1005700061E0812F0E94B305812F90E0FC01E45FD0
:10058000FE4FE491E88BFC01E05EFE4FE491F0E069
:10059000EE0FFF1FE25CFE4F85919491898B9A8B41
:1005A000DF91CF911F9108951F93CF93DF93EC01BB
:1005B000162F60E0812F0E947B058B8D81FD04C08A
:1005C00061E0812F0E94B3051C87812F90E0FC0120
:1005D000E45FFE4FE491ED87FC01E05EFE4FE491A5
:1005E000F0E0EE0FFF1FEC5CFE4F859194918E873B
:1005F0009F87DF91CF911F910895FF920F931F93D3
:10060000CF93DF93EC01F62E522F1B821A8208EE55
:1006100013E020E030E00C831D832E833F8383E8CA
:1006200091E0998388831C8A1B8A1E8A1D8A188EF2
:100630001F8A1A8E198E8B8D8E7F50FB81F98B8FBE
:10064000642FCE010E94AF026F2DCE01DF91CF91BA
:100650001F910F91FF900C94D402FF920F931F9360
:10066000CF93DF93EC011A8E198E188E1F8A1E8A83
:100670001D8A1C8A1B8AA0E0B0E02CE0F22EFA9EB4
:10068000C001FB9E900D1124FC01E859FF4F05911C
:100690001591259134910417150726073707E9F4BA
:1006A000FC01E459FF4F259134912B8B3C8BFC01CD
:1006B000E259FF4F259134912D8B3E8BFC01E0597F
:1006C000FF4F259134912F8B388F8E589F4FFC010F
:1006D00085919491898F9A8F05C01196AC30B105A0
:1006E00009F0CDCF8F89988D892B09F449C03C85BD
:1006F000363108F041C040916800383068F081E040
:1007000090E03E3010F480E090E021E030E001C065
:10071000220F8A95EAF701C024E0242B2093680079
:100720003C85383038F03E3040F0363148F0E0E07B
:10073000F0E008C0EDE6F0E005C0EBE6F0E002C056
:10074000ECE6F0E04081383040F481E090E0282F82
:1007500001C0220F3A95EAF70DC0832F90E03E309A
:1007600010F4089701C00E9721E030E001C0220F7D
:100770008A95EAF7242B2083898D9A8D0E94470160
:10078000CE01DF91CF911F910F91FF900C944E01FC
:10079000FC014485463150F5483028F04E3030F4A5
:1007A000EBE6F0E005C0EDE6F0E002C0ECE6F0E0DC
:1007B0005081483040F481E090E0042E01C0880F61
:1007C0000A94EAF710C0242F30E04E3018F4285075
:1007D000310902C02E50310981E090E0022E01C0A3
:1007E000880F0A94EAF7809585238083089523E88B
:1007F00031E0FC01318320830C94C80360E071E098
:1008000089E092E00E942E0840E056E960E070E046
:1008100080EA91E00E942D036AE171E080EA91E0B4
:100820000E940F0868E271E080EA91E00E940F08E0
:100830006AE371E080EA91E00E940F0868E471E0E9
:1008400080EA91E00E940F0860ED77E080E090E0A0
:100850000E94F00466E571E080EA91E00E940F08D2
:1008600061E671E089E092E00E942E0860ED77E099
:1008700080E090E00E94F00480EA91E00C94120184
:1008800040E855E260E070E089E092E00E94FA06FC
:1008900060E087E00E947B0561E086E00E947B05C6
:1008A0000C94FE0380EA91E00E942101892B49F01B
:1008B00080EA91E00E94D600682F89E092E00E94D1
:1008C000110889E092E00E94EA05892B59F389E03A
:1008D00092E00E941906682F80EA91E00E941108B8
:1008E000E1CF20E046E067E080EA91E00C94FD0271
:1008F00080EA91E00C94F7031F920F920FB60F92CB
:1009000011242F933F938F939F93AF93BF93809125
:10091000000290910102A0910202B0910302309175
:100920000802232F2D5F2D3720F40196A11DB11D44
:1009300005C0232F2A570296A11DB11D209308023E
:100940008093000290930102A0930202B0930302ED
:100950008091040290910502A0910602B0910702D5
:100960000196A11DB11D8093040290930502A093EE
:100970000602B0930702BF91AF919F918F913F9173
:100980002F910F900FBE0F901F9018950F931F93EC
:100990009FB7F8940091040210910502209106027D
:1009A0003091070286B5A89B06C08F3F21F00F5FEC
:1009B0001F4F2F4F3F4F9FBF322F212F102F002748
:1009C000080F111D211D311D42E0000F111F221FB4
:1009D000331F4A95D1F7B801C9011F910F910895AE
:1009E000CF92DF92EF92FF92CF93DF936B017C0166
:1009F0000E94C604EB010EC00E94C6046C1B7D0B56
:100A0000683E734038F081E0C81AD108E108F10867
:100A1000C851DC4FC114D104E104F10469F7DF913E
:100A2000CF91FF90EF90DF90CF900895789484B5A8
:100A3000826084BD84B5816084BD85B5826085BDDA
:100A400085B5816085BDEEE6F0E0808181608083C0
:100A5000E1E8F0E0108280818260808380818160A3
:100A60008083E0E8F0E0808181608083E1EBF0E06A
:100A7000808184608083E0EBF0E08081816080830E
:100A8000EAE7F0E0808184608083808182608083F7
:100A90008081816080838081806880831092C10022
:100AA0000895833069F028F48130A1F0823011F587
:100AB00014C08630B1F08730C1F08430D9F404C05E
:100AC000809180008F7703C0809180008F7D80931C
:100AD0008000089584B58F7702C084B58F7D84BD72
:100AE00008958091B0008F7703C08091B0008F7D12
:100AF0008093B0000895CF93DF9390E0FC01E45F12
:100B0000FE4F4491FC01E05EFE4F8491882341F149
:100B100090E0880F991FFC01E85BFE4F259134910E
:100B2000D901825C9E4FFC0185919491C82FD92FE9
:100B30009FB7F8948C91611106C0409584238C93E3
:100B40008881842308C0623041F4242F20958223B9
:100B50008C938881842B888302C0842B8C939FBFC5
:100B6000DF91CF9108950F931F93CF93DF931F923F
:100B7000CDB7DEB7282F30E0F901E850FF4F849160
:100B8000F901E45FFE4F1491F901E05EFE4F04911C
:100B90000023D1F0882321F069830E9451056981E7
:100BA000E02FF0E0EE0FFF1FE25CFE4F8591949185
:100BB000DC019FB7F8948C91611103C010958123DB
:100BC00001C0812B8C939FBF0F90DF91CF911F911C
:100BD0000F910895FC0184859585FC01E05CFF4F31
:100BE00020813181FC01EE5BFF4F80819181281BC8
:100BF000390B2F733327C9010895FC01848595852E
:100C0000FC01E05CFF4F40815181FC01EE5BFF4F36
:100C1000208131814217530741F00190F081E02D8E
:100C2000E80FF91F208130E002C02FEF3FEFC9012C
:100C30000895FC0184859585FC01E05CFF4F4081AF
:100C40005181FC01EE5BFF4F208131814217530738
:100C500071F0A081B181A80FB91F2C918081918181
:100C600001968F7399279183808330E002C02FEF24
:100C70003FEFC9010895FC0186859785FC01E05C82
:100C8000FF4FDC01AE5BBF4F408151812D913C9104
:100C9000119742175307C1F70895CF93DF93FC01D3
:100CA00026853785D901A05CBF4F8D919C91119706
:100CB00001968F739927E901CE5BDF4F48815981F7
:100CC00084179507D9F30D90BC91A02DA20FB31FE7
:100CD0006C93A685B785A05CBF4F11969C938E93AD
:100CE000A689B7892C9181E090E0058C02C0880F1D
:100CF000991F0A94E2F7282B2C9381E090E0DF9172
:100D0000CF91089508951F920F920FB60F9211245C
:100D10002F933F934F938F939F93EF93FF93409124
:100D2000C6008091AC029091AD0201968F73992715
:100D30002091AE023091AF028217930759F0E091F3
:100D4000AC02F091AD02E459FD4F40839093AD02A7
:100D50008093AC02FF91EF919F918F914F913F91C2
:100D60002F910F900FBE0F901F90189589E092E081
:100D70000E94EA05892B11F00C94820608951F92B7
:100D80000F920FB60F9211242F933F938F939F933F
:100D9000EF93FF93209168023091690280916A027B
:100DA00090916B022817390731F48091C1008F7D33
:100DB0008093C10014C0E0916A02F0916B02E85D7B
:100DC000FD4F208180916A0290916B0201968F7392
:100DD000992790936B0280936A022093C600FF913B
:100DE000EF919F918F913F912F910F900FBE0F9098
:100DF0001F901895CF92DF92EF92FF92CF93DF93DF
:100E0000EC016A017B01411581EE5807610571050E
:100E1000F9F0EC89FD8981E090E00E8C02C0880F2A
:100E2000991F0A94E2F7808360E079E08DE390E017
:100E3000A70196010E946D0821503109410951090D
:100E40005695479537952795211580E1380798F0F5
:100E5000EC89FD89108260E874E88EE190E0A701DA
:100E600096010E946D08215031094109510956959A
:100E7000479537952795E889F9893083EA89FB8971
:100E80002083EE89FF89408181E090E09C010A8CFB
:100E900002C0220F331F0A94E2F7422B4083EE89EF
:100EA000FF8940819C010B8C02C0220F331F0A94E2
:100EB000E2F7422B4083EE89FF8940819C010C8C34
:100EC00002C0220F331F0A94E2F7422B4083EE89BF
:100ED000FF8920810D8C02C0880F991F0A94E2F7C8
:100EE000809582238083DF91CF91FF90EF90DF90F8
:100EF000CF90089510920C0210920B0288EE93E0AE
:100F0000A0E0B0E080930D0290930E02A0930F0238
:100F1000B093100283E991E090930A028093090252
:100F20008CE692E0909316028093150288E292E09C
:100F3000909318028093170285EC90E090931A0228
:100F40008093190284EC90E090931C0280931B0222
:100F500080EC90E090931E0280931D0281EC90E063
:100F60009093200280931F0286EC90E090932202DF
:100F70008093210284E08093230283E08093240203
:100F800087E08093250285E08093260281E08093AC
:100F9000270208950E9416050E944004C6EBD6E081
:100FA0000E9452042097E1F30E94B606F9CFCF9237
:100FB000DF92EF92FF920F931F93CF93DF936C0119
:100FC000EB017A01E60EF71E00E010E00BC069911C
:100FD000D601ED91FC910190F081E02DC6010995BB
:100FE000080F191FCE15DF0591F7C801DF91CF91CA
:100FF0001F910F91FF90EF90DF90CF900895DB014C
:101000000D900020E9F7AD0141505109461B570BE7
:10101000DC01ED91FC910280F381E02D09940C94A8
:10102000FF07DC01ED91FC910190F081E02D099426
:101030000F931F93CF93DF93EC016DE00E94110893
:101040008C016AE0CE010E9411089C01200F311F23
:10105000C901DF91CF911F910F9108950F931F93B5
:10106000CF93DF93EC010E94FF078C01CE010E9419
:1010700018089801280F391FC901DF91CF911F91DE
:101080000F910895F8940C949508AA1BBB1B51E18D
:1010900007C0AA1FBB1FA617B70710F0A61BB70BE8
:1010A000881F991F5A95A9F780959095BC01CD018D
:1010B000089597FB072E16F4009407D077FD09D00A
:1010C0000E94450807FC05D03EF4909581959F4FFE
:1010D0000895709561957F4F0895A1E21A2EAA1B7D
:1010E000BB1BFD010DC0AA1FBB1FEE1FFF1FA217D8
:1010F000B307E407F50720F0A21BB30BE40BF50BD5
:10110000661F771F881F991F1A9469F7609570955D
:10111000809590959B01AC01BD01CF010895EE0F24
:10112000FF1F0590F491E02D099411E0C6E5D1E090
:1011300004C0FE010E9491082296C835D107C9F764
:04114000F894FFCF51
:1011440053657474696E6720757020426C7565749C
:101154006F6F7468206C696E6B000D0A2B535457C3
:101164004D4F443D300D0A000D0A2B53544E413D62
:10117400736565656442540D0A000D0A2B53544F80
:101184004155543D310D0A000D0A2B535441555419
:101194004F3D300D0A000D0A2B494E513D310D0AC9
:1011A40000536C61766520626C7565746F6F74684A
:1011B40020697320696E7175697261626C650000E3
:1011C400000000D401D7072101D600F70012010066
:1011D4000000004D06D707EA051906FD053B060089
:00000001FF
